:100000000C9446000C945D000C945D000C945D0013
:100010000C945D000C945D000C945D000C945D00EC
:100020000C945D000C945D000C945D000C945D00DC
:100030000C945D000C945D000C945D000C945D00CC
:100040000C945D000C945D000C945D000C945D00BC
:100050000C945D000C945D000C945D000C945D00AC
:100060000C945D000C945D000C945D000C945D009C
:100070000C945D000C945D000C945D000C945D008C
:100080000C945D000C945D000C945D0011241FBE67
:10009000CFEFD0E4DEBFCDBF11E0A0E0B1E0E4EDF2
:1000A000F1E000E00BBF02C007900D92AE30B10747
:1000B000D9F70E9488000C94E8000C940000CF93BC
:1000C000DF9300D01F92CDB7DEB789837B836A832D
:1000D00089818A3031F48A819B81BC018DE00E9444
:1000E0005F0080EC90E0FC018081882F90E08072BE
:1000F00099270097B1F386EC90E02981FC012083D9
:1001000080E090E00F900F900F90DF91CF910895D5
:10011000CF93DF9300D01F92CDB7DEB781E290E09E
:10012000FC01108282E290E02FEFFC01208387E245
:1001300090E02FEFFC01208388E290E0FC01108228
:100140001A8219821B821A821B82198280E290E035
:10015000FC0180818F708A8380E290E0FC018081C5
:1001600080778B838A81882319F0898180628983D3
:100170008A81833018F08981806189838A81853002
:1001800018F08981886089838A81873018F0898195
:10019000846089838A818A3018F0898182608983AA
:1001A0008A818D3018F08981816089838A818530C8
:1001B00018F48981806489838B81803319F4898163
:1001C0008068898388E290E02981FC012083BBCF8D
:0401D000F894FFCFD1
:0E01D40000000002000000005F0000000000BC
:00000001FF
